:0400000015EF00F008
:100008005B828C80030E026E080E016E770EE82E5E
:10001800FED7012EFCD7022EFAD700F0F2905B92A1
:100028001100E1EF13F04650800B4F6E4650462406
:10003800516E45AE22EF00F024EF00F025EF00F0FE
:1000480051805150D8B42BEF00F02DEF00F042EF63
:1000580000F05128D8A433EF00F035EF00F03DEF61
:1000680000F0000E436E000E446E000E456E000E4A
:10007800466E458E000E466E4AEF00F0000E436E47
:10008800000E446E000E456E000E466E4A50800B00
:10009800506E4F505018D8B454EF00F056EF00F09F
:1000A80057EF00F04F8C4A504A24506E49AE5FEF2C
:1000B80000F061EF00F062EF00F050805050D8B4CB
:1000C80068EF00F06AEF00F07FEF00F05028D8A446
:1000D80070EF00F072EF00F07AEF00F0000E476E5C
:1000E800000E486E000E496E000E4A6E498E000ED4
:1000F8004A6E87EF00F0000E476E000E486E000E45
:10010800496E000E4A6E5150505CD8B08EEF00F028
:1001180090EF00F0B7EF00F04FAC95EF00F097EFDD
:1001280000F099EF00F0800E4F1A51C052F050C005
:1001380051F052C050F043C052F047C043F052C093
:1001480047F044C052F048C044F052C048F045C09F
:1001580052F049C045F052C049F046C052F04AC07A
:1001680046F052C04AF0000E526E515050C04BF04B
:100178004C6A4B5E000E4C5A4CBECCEF00F04C5013
:1001880009E11A0E4B5CD8A0CCEF00F0CEEF00F0DE
:1001980005EF01F04350441045104610D8A4D7EF9E
:1001A80000F0DAEF00F0010EDBEF00F0000E526E07
:1001B800000E436E000E446E000E456E000E466E35
:1001C80050C051F00EEF01F052A0EDEF00F0EFEF4C
:1001D80000F0F5EF00F0D89052300109526EF7EFB9
:1001E80000F0D890523243A0FCEF00F0FEEF00F090
:1001F800FFEF00F0528E46344632453244324332E5
:10020800512A5050515CD8A00CEF01F00EEF01F0CC
:10021800E8EF00F04FBC13EF01F015EF01F055EFD8
:1002280001F05150D8A41BEF01F01DEF01F027EFAA
:1002380001F0000E436E000E446E000E456E000E77
:10024800466E76EF02F04750432648504422495004
:1002580045224A50462246A034EF01F036EF01F01D
:10026800E2EF01F052A03BEF01F03DEF01F043EF68
:1002780001F0D89052300109526E45EF01F0D89044
:10028800523243A04AEF01F04CEF01F04DEF01F07C
:10029800528E46344632453244324332512AE2EFD6
:1002A80001F04750435C485044584950455846501F
:1002B800800A4B6E4A50800A4B58D8B066EF01F05E
:1002C80068EF01F093EF01F04350475C4B6E4450E8
:1002D80048584C6E455049584D6E46504A584E6ED7
:1002E800FF0E4B24436EFF0E4C20446EFF0E4D2034
:1002F800456EFF0E4E20466E800E4F1A526C5250BD
:10030800D8A489EF01F08BEF01F09BEF01F0010E0B
:100318004326000E4422452246229BEF01F0475017
:10032800435E4850445A4950455A4A50465A4350E9
:10033800441045104610D8A4A4EF01F0A6EF01F030
:10034800DBEF01F05250D8A4ACEF01F0AEEF01F0B2
:10035800DBEF01F0000E436E000E446E000E456E9A
:10036800000E466E76EF02F0D89043364436453696
:10037800463652AEC2EF01F0C4EF01F0C5EF01F00E
:10038800438052A0CAEF01F0CCEF01F0D0EF01F0AA
:10039800D8805236D2EF01F0D89052365150D8B4A6
:1003A800D8EF01F0DAEF01F0DBEF01F0510645AECE
:1003B800E0EF01F0E2EF01F0B8EF01F0000E506E4F
:1003C80052AEE9EF01F0EBEF01F003EF02F052C09B
:1003D8004BF07F0E4B16D8B4F4EF01F0F6EF01F0B6
:1003E800FAEF01F0010E506E03EF02F043A0FFEFA9
:1003F80001F001EF02F003EF02F0F6EF01F05050C8
:10040800D8B409EF02F00BEF02F036EF02F0010E5C
:100418004326000E44224522462246A016EF02F04B
:1004280018EF02F036EF02F043C04BF044C04CF036
:1004380045C04DF046C04EF04E344E324D324C322F
:100448004B324BC043F04CC044F04DC045F04EC059
:1004580046F05128D8B433EF02F035EF02F036EF0A
:1004680002F0512A5128D8B43CEF02F03EEF02F0D6
:1004780046EF02F05150D8A444EF02F046EF02F0E4
:1004880058EF02F0000E436E000E446E000E456EEB
:10049800000E466E5150D8A454EF02F056EF02F009
:1004A80058EF02F0000E4F6E51A05DEF02F05FEFC3
:1004B80002F062EF02F0458E63EF02F0459ED8909D
:1004C8005130466E4FAE6BEF02F06DEF02F06EEFFB
:1004D80002F0468E43C043F044C044F045C045F0A6
:1004E80046C046F01200010E000194259B6F9C6BDC
:1004F800000E9C23000EA06F000E9F6F91BF89EF26
:1005080002F087EF02F0A3EF02F092C0D9FF93C088
:10051800DAFF2D0EDF6E924B932B8EC003F08FC047
:1005280004F090C005F091C006F024EC14F003C06C
:100538008EF004C08FF005C090F006C091F0000E58
:10054800036E000E046E000E056E000E066E8EC061
:1005580007F08FC008F090C009F091C00AF044EC91
:1005680010F0D8B0BAEF02F0BCEF02F014EF03F0CD
:10057800DCEF02F08EC011F08FC012F090C013F0C3
:1005880091C014F0000E156E000E166E200E176E38
:10059800410E186EA0EC04F011C08EF012C08FF05E
:1005A80013C090F014C091F000019F07D8A0A007D5
:1005B8008EC003F08FC004F090C005F091C006F023
:1005C800000E076E000E086E800E096E3F0E0A6E52
:1005D80044EC10F0D8A0F3EF02F0F5EF02F0BEEF14
:1005E80002F014EF03F08EC02AF08FC02BF090C0F9
:1005F8002CF091C02DF0000E2E6E000E2F6E200EE6
:10060800306E410E316EA6EC0AF02AC08EF02BC077
:100618008FF02CC090F02DC091F000019F4BA02BC3
:100628008EC003F08FC004F090C005F091C006F0B2
:10063800000E076E000E086E200E096E410E0A6E3F
:1006480044EC10F0D8B02BEF03F02DEF03F0F7EFE8
:1006580002F000019F519B259B6FA0519C219C6F2C
:10066800000E9E6F010E9D6F9DC003F09EC004F0AA
:10067800000E04BEFF0E056E066E010E53EC0DF063
:1006880003C097F004C098F005C099F006C09AF02E
:100698006BEF03F097C02AF098C02BF099C02CF0AC
:1006A8009AC02DF0000E2E6E000E2F6E200E306EAA
:1006B800410E316EA6EC0AF02AC097F02BC098F0D4
:1006C8002CC099F02DC09AF000019D4B9E2B000183
:1006D8009B519D5D9E51800A536E9C51800A5358D0
:1006E800D8A079EF03F07BEF03F04EEF03F08EC054
:1006F80043F08FC044F090C045F091C046F0000E22
:100708002E6E000E2F6E000E306E400E316E97C0AA
:100718002AF098C02BF099C02CF09AC02DF0A6ECC6
:100728000AF02AC047F02BC048F02CC049F02DC071
:100738004AF017EC00F043C08EF044C08FF045C07B
:1007480090F046C091F08EC003F08FC004F090C0C6
:1007580005F091C006F0000E076E000E086E200E20
:10076800096E410E0A6E44EC10F0D8A0BEEF03F0FB
:10077800C0EF03F0CBEF03F0000E00018E6F000E08
:100788008F6F800E906F3F0E916F9F4BA02B0001D3
:10079800A0BFD3EF03F0D1EF03F00EEF04F092C047
:1007A800D9FF93C0DAFF300EDF6E924B932B92C0C5
:1007B800D9FF93C0DAFF2E0EDF6E924B932B9CBFAE
:1007C800EAEF03F0E8EF03F0F0EF03F09B519F5DD1
:1007D8009F6F9C51A059A06F9D699E69FFEF03F020
:1007E80092C0D9FF93C0DAFF300EDF6E924B932B85
:1007F8009D07D8A09E079D519F5DA051800A536E0A
:100808009E51800A5358D8A00CEF04F00EEF04F064
:10081800F4EF03F0000E9E6F000E9D6F8BEF04F057
:100828008EC02AF08FC02BF090C02CF091C02DF014
:10083800C1EC0FF02AC095F02BC096F0000195513D
:10084800300F92C0D9FF93C0DAFFDF6E924B932B23
:100858009F519D1907E1A0519E19D8A436EF04F0C5
:1008680038EF04F040EF04F092C0D9FF93C0DAFFEC
:100878002E0EDF6E924B932B8EC086F08FC087F0C2
:1008880090C088F091C089F095C003F096C004F03C
:10089800000E04BEFF0E056E066E010E53EC0DF041
:1008A80003C097F004C098F005C099F006C09AF00C
:1008B80097C08AF098C08BF099C08CF09AC08DF0E0
:1008C800BDEC13F086C08EF087C08FF088C090F022
:1008D80089C091F08EC011F08FC012F090C013F053
:1008E80091C014F0000E156E000E166E200E176ED5
:1008F800410E186EA0EC04F011C08EF012C08FF0FB
:1009080013C090F014C091F000019D4B9E2B9B5199
:100918009D5D9E51800A536E9C51800A5358D8A001
:1009280098EF04F09AEF04F014EF04F092C0D9FFA6
:1009380093C0DAFFDF6A12001450800B1D6E14504A
:100948001424236E13AEABEF04F0ADEF04F0AEEF5A
:1009580004F023802350D8B4B4EF04F0B6EF04F0C9
:10096800C9EF04F02328D8A4BCEF04F0BEEF04F0CC
:10097800C6EF04F0000E116E000E126E000E136E1C
:10098800000E146E138ED1EF04F0000E116E000EDF
:10099800126E000E136E000E146E1850800B1D1A86
:1009A800185018241E6E17AEDCEF04F0DEEF04F0CA
:1009B800DFEF04F01E801E50D8B4E5EF04F0E7EF37
:1009C80004F0FAEF04F01E28D8A4EDEF04F0EFEFDE
:1009D80004F0F7EF04F0000E156E000E166E000E10
:1009E800176E000E186E178E02EF05F0000E156ECA
:1009F800000E166E000E176E000E186E1E50D8B43C
:100A080008EF05F00AEF05F012EF05F02350D8A41F
:100A180010EF05F012EF05F01CEF05F0000E116E57
:100A2800000E126E000E136E000E146EB4EF06F078
:100A380017501102F3CF28F0F4CF29F028501F6E79
:100A4800206A216A226A2950246E256A266A276A42
:100A580016501202F3CF28F0F4CF29F028501F26A1
:100A6800000E20222122222229502426000E25228F
:100A78002622272215501302F3CF28F0F4CF29F0AD
:100A880028501F26000E2022212222222950242607
:100A9800000E25222622272221C022F020C021F084
:100AA8001FC020F01F6A15501202F3CF28F0F4CFB0
:100AB80029F028501F2629502022000E2122000E3E
:100AC800222216501102F3CF28F0F4CF29F0285033
:100AD8001F2629502022000E2122000E222221C08A
:100AE80022F020C021F01FC020F01F6A155011020B
:100AF800F3CF28F0F4CF29F028501F2629502022C0
:100B0800000E2122000E222217501202F3CF28F0E5
:100B1800F4CF29F02850242629502522000E262219
:100B2800000E272216501302F3CF28F0F4CF29F035
:100B38002850242629502522000E2622000E27227E
:100B480017501302F3CF28F0F4CF29F02850196E6C
:100B580029501A6E1B6A1C6A1BC01CF01AC01BF0B5
:100B680019C01AF0196A195024261A5025221B5048
:100B780026221C5027221FC019F020C01AF021C0BD
:100B88001BF022C01CF0190ECFEF05F0D8901C32D4
:100B98001B321A321932E82ECAEF05F019502426F2
:100BA8001A5025221B5026221C50272221C022F031
:100BB80020C021F01FC020F01F6A1E5023C019F06A
:100BC8001A6A1926000E1A22820E1924286EFF0EA0
:100BD8001A20296E05EF06F0D890243625362636D9
:100BE800273622AEFAEF05F0FCEF05F0FDEF05F031
:100BF8002480D8901F362036213622362806D8A0E1
:100C0800290626AE0AEF06F00CEF06F0F0EF05F025
:100C1800000E1E6E22AE13EF06F015EF06F039EF48
:100C280006F0FF0E1F14196EFF0E20141A6EFF0E29
:100C380021141B6E7F0E22141C6E19501A101B10E3
:100C48001C10D8B42AEF06F02CEF06F030EF06F0AF
:100C5800010E1E6E39EF06F024A035EF06F037EFCF
:100C680006F039EF06F02CEF06F01E50D8B43FEF2F
:100C780006F041EF06F065EF06F0010E2426000E9F
:100C880025222622272227A04CEF06F04EEF06F059
:100C980065EF06F024C019F025C01AF026C01BF035
:100CA80027C01CF01C341C321B321A32193219C0EE
:100CB80024F01AC025F01BC026F01CC027F0284AD3
:100CC800292A29BE70EF06F0295008E12828D8A063
:100CD80070EF06F072EF06F07CEF06F0000E246E5F
:100CE800000E256E800E266E7F0E276EAAEF06F088
:100CF80029BE89EF06F0295006E12804D8B087EF0D
:100D080006F089EF06F095EF06F0000E246E000E4F
:100D1800256E000E266E000E276E000E1D6EAAEFC1
:100D280006F028C023F0FF0E2416FF0E25167F0EAE
:100D38002616000E271623A0A4EF06F0A6EF06F04D
:100D4800A7EF06F0268ED8902330276E1D50271265
:100D580024C011F025C012F026C013F027C014F0EB
:100D68001200000000000000000000000000000069
:100D7800000000000000000000000000000000006B
:100D8800000000000000000000000000000000005B
:100D9800000000000000000000000000000000004B
:100DA800000000000000000000000000000000003B
:100DB800000000000000000000000000000000002B
:100DC800000000000000000000000000000000001B
:100DD800000000000000000000000000000000000B
:100DE800000000000000000000000000FCFCFC0CFB
:100DF8000C0C0C0C0C0000C0C0C080C0C0C0C0806F
:100E08000080C0C0C0C08000000000FEFEFE80C0A0
:100E1800C0C0C0C080000000008080C0C0C0C0C08A
:100E280080000000008080C0C0C0C080FEFEFE00C0
:100E380000008080C0C0C0C080FEFEFE00000080B0
:100E480080C0C0C0C0C080000000008080C0C0C09A
:100E5800C080FEFEFE000000000000000000000050
:100E6800000000000000000000000000FFFFFF83FA
:100E780083838383800000FFFFFF01000001FFFFE1
:100E8800FF01000001FFFFFF000000FFFFFFC1801E
:100E98008080C1FFFF3E00003EFFFFCD8C8C8C8F11
:100EA800CFCF00003EFFFFC1808080C1FFFFFF0061
:100EB800003EFFFFC1808080C1FFFFFF00003EFFB2
:100EC800FFCD8C8C8C8FCFCF00003EFFFFC1808080
:100ED80080C1FFFFFF0000000000000000000000CC
:100EE80000000000000000000000000001010101F6
:100EF80001010101010000010101000000000101E0
:100F080001000000000101010000000101010001D1
:100F180001010100000000000000000101010101C1
:100F280001000000000001010101010001010100B0
:100F380000000001010101010001010100000000A1
:100F4800000101010101010000000000010101018F
:100F58000100010101000000000000000000000085
:100F68000000000000000000000000FCFCFC000085
:100F780000000000008080C0C0C0C0C08000000029
:100F8800FEFEFE80C0C0C0C0C0800000000080809F
:100F9800C0C0C0C0C08080000000C0C0C080C0C049
:100FA800C00000008080C0C0C0C0C0800000C0C0B9
:100FB800F8F8F8C0C0C000008080C0C0C0C0C080C1
:100FC80080000000C0C0C080C0C0C040C0C0800059
:100FD80000000080C0C040000000000000000000C9
:100FE8000000000000000000000000FFFFFF8080FC
:100FF8008080800070F9FD9C8C8CCCFFFFFF000086
:10100800FFFFFFC1808080C1FFFF3E00003EFFFF61
:10101800C1808080C1FFFF3E0000FFFFFF03010188
:1010280001000070F9FD9C8C8CCCFFFFFF000000D4
:10103800FFFFFF808080003EFFFFC1808080C1FFEE
:10104800FF3E0000FFFFFF0301010100030F3FFE09
:10105800F8C0FCFF1F0300000000000000000000B3
:101068000000000000000000000000010101010173
:10107800010101000000010101010001010100005E
:101088000101010001010101000000000000000051
:101098000101010101000000000001010100000040
:1010A8000000000000010101010001010100000031
:1010B800000101010101000000000101010101001E
:1010C8000000000001010100000000000000181DE0
:1010D8001F0F0300000000000000000000000000D7
:1010E80000000000000000000000000000000000F8
:1010F80000000000000000000000000000000000E8
:1011080000000000000000000000000000000000D7
:1011180000000000000000000000000000000000C7
:1011280000000000000000000000000000000000B7
:1011380000000000000000000000000000000000A7
:101148000000000000000000000000000000000097
:101158000000000000000000000000000000000087
:101168000000000E2C6E000E2B6E000E2E6E000E70
:101178002D6E000E206E000E1F6E63C01AF0070E53
:101188001A16D8A4CAEF08F0CCEF08F0CBEF09F094
:1011980062C00BF00C6A000E066E080E056E63C086
:1011A80003F0046AA1EC11F003C00DF004C00EF0C6
:1011B80040EC14F00BC01DF00CC01EF0000164518F
:1011C800195C0B6E0C6AD8A00C061DC00DF01EC071
:1011D8000EF040EC14F0040E0B24256E000E0C20CB
:1011E800266E000E2C6E000E2B6EB5EF09F0000E69
:1011F8002E6E000E2D6EA4EF09F062C00BF00C6A83
:101208002BC00DF02CC00EF040EC14F00B50000178
:1012180060251A6E0C5061211B6E25501A26265027
:101228001B222D501A262E501B221AC0F6FF1BC057
:10123800F7FF0800F5501F6E206A000E2F6E2FC0B2
:101248001AF0010E1B6E000E1C6E1A2A2FEF09F001
:10125800D8901B361C361A2E2CEF09F01F501B167F
:1012680020501C161B501C10D8B43DEF09F03FEF5E
:1012780009F08EEF09F000016651D8A446EF09F095
:1012880048EF09F06BEF09F02D5015240B6E2E5026
:1012980016200C6E2F502BC01AF02CC01BF0D890C3
:1012A8001A361B36D8901A361B36D8901A361B3683
:1012B8001A26000E1B2217501A240D6E18501B20D8
:1012C8000E6E010E0F6E73EC0CF099EF09F02D50B5
:1012D80015240B6E2E5016200C6E2F502BC01AF0B2
:1012E8002CC01BF0D8901A361B36D8901A361B36ED
:1012F800D8901A361B361A26000E1B2217501A24AD
:101308000D6E18501B200E6E000E0F6E73EC0CF055
:1013180099EF09F000016651D8A495EF09F097EF0D
:1013280009F048EF09F06BEF09F02F2A070E2F6438
:10133800A0EF09F0A2EF09F023EF09F02D4A2E2AB9
:10134800000162511A6E1B6A1A502D5C1B502E58F0
:10135800D8A0B1EF09F0B3EF09F001EF09F02B4A7B
:101368002C2A63C003F0046A000E066E080E056E90
:10137800A1EC11F003502B5C04502C58D8A0C7EFF7
:1013880009F0C9EF09F0FBEF08F0A5EF0AF000013A
:101398006451195C0B6E0C6AD8A00C06000E066E20
:1013A800080E056E62516303F3CF03F0F4CF04F027
:1013B800A1EC11F003C00DF004C00EF040EC14F0E5
:1013C800040E0B24256E000E0C20266E25500001FD
:1013D80060251A6E265061211B6E1AC0F6FF1BC0CD
:1013E800F7FF0800F550216E226A000E246E070EE2
:1013F800236E000E286E000E276E93EF0AF0000E83
:101408002A6E000E296E7EEF0AF023C01AF0010E34
:101418001B6E000E1C6E1A2A15EF0AF0D8901B36A8
:101428001C361A2E12EF0AF021501B1622501C16D9
:101438001B501C10D8B423EF0AF025EF0AF052EF26
:101448000AF000016651D8A42CEF0AF02EEF0AF03A
:1014580040EF0AF0275015240B6E285016200C6E0A
:10146800295017240D6E2A5018200E6E010E0F6E8B
:1014780073EC0CF05DEF0AF0275015240B6E285022
:1014880016200C6E295017240D6E2A5018200E6E47
:10149800000E0F6E73EC0CF05DEF0AF00001665160
:1014A800D8A459EF0AF05BEF0AF02EEF0AF040EFEC
:1014B8000AF02306D8A0240624BE67EF0AF065EFD9
:1014C8000AF07CEF0AF0000E246E070E236E254A00
:1014D800262A2550000160251A6E265061211B6EB0
:1014E8001AC0F6FF1BC0F7FF0800F550216E226AEC
:1014F800294A2A2A000163511A6E1B6A1A50295C6C
:101508002A50800A1C6E1B50800A1C58D8A08FEFE6
:101518000AF091EF0AF009EF0AF0274A282A6251E7
:101528001A6E1B6A1A50275C2850800A1C6E1B50C2
:10153800800A1C58D8A0A3EF0AF0A5EF0AF003EF21
:101548000AF012002D50800B3A6E2D502D24416E5A
:101558002CAEB1EF0AF0B3EF0AF0B4EF0AF0418015
:101568004150D8B4BAEF0AF0BCEF0AF0D1EF0AF054
:101578004128D8A4C2EF0AF0C4EF0AF0CCEF0AF071
:10158800000E2A6E000E2B6E000E2C6E000E2D6EB5
:101598002C8E000E2D6ED9EF0AF0000E2A6E000E6A
:1015A8002B6E000E2C6E000E2D6E3150800B3A1AE9
:1015B80031503124426E30AEE4EF0AF0E6EF0AF023
:1015C800E7EF0AF042804250D8B4EDEF0AF0EFEFAF
:1015D8000AF004EF0BF04228D8A4F5EF0AF0F7EF71
:1015E8000AF0FFEF0AF0000E2E6E000E2F6E000EAE
:1015F800306E000E316E308E000E316E0CEF0BF037
:10160800000E2E6E000E2F6E000E306E000E316E24
:101618002E502F1030103110D8A415EF0BF017EF03
:101628000BF02FEF0BF0000E2A6E000E2B6E000E43
:101638002C6E000E2D6E800E2C127F0E2D123A503D
:101648002D122AC02AF02BC02BF02CC02CF02DC054
:101658002DF072EF0CF04150D8A435EF0BF037EFB6
:101668000BF041EF0BF0000E2A6E000E2B6E000EF1
:101678002C6E000E2D6E72EF0CF0425041C032F00D
:10168800336A325E000E335A7F0E32243B6E000EF0
:1016980033203C6E2AC036F02BC037F02CC038F00F
:1016A8002DC039F0000E2A6E000E2B6E000E2C6E27
:1016B800000E2D6E000E3D6E000E3E6E000E3F6E4B
:1016C800000E406E000E426EA2EF0BF04250D8B4EE
:1016D80070EF0BF072EF0BF089EF0BF0D890363605
:1016E800373638363936D8902A362B362C362D36BA
:1016F80040AE81EF0BF083EF0BF084EF0BF02A8004
:10170800D8903D363E363F3640362E50365C2F5008
:1017180037583050385831503958D8A096EF0BF018
:1017280098EF0BF0A1EF0BF0408C2E50365E2F5047
:10173800375A3050385A3150395A422A190E4264B1
:10174800A8EF0BF0AAEF0BF06AEF0BF0365037104A
:1017580038103910D8B4B3EF0BF0B5EF0BF0CDEF6C
:101768000BF03D80CDEF0BF0D8902A362B362C3677
:101778002D3640AEC2EF0BF0C4EF0BF0C5EF0BF007
:101788002A80D8903D363E363F3640363B06D8A0B4
:101798003C062CAED2EF0BF0D4EF0BF0B8EF0BF009
:1017A800000E426E40AEDBEF0BF0DDEF0BF001EF09
:1017B8000CF0FF0E3D14326EFF0E3E14336EFF0E1A
:1017C8003F14346E7F0E4014356E3250331034108F
:1017D8003510D8B4F2EF0BF0F4EF0BF0F8EF0BF094
:1017E800010E426E01EF0CF02AA0FDEF0BF0FFEFA7
:1017F8000BF001EF0CF0F4EF0BF04250D8B407EF08
:101808000CF009EF0CF02DEF0CF0010E2A26000E5B
:101818002B222C222D222DA014EF0CF016EF0CF009
:101828002DEF0CF02AC032F02BC033F02CC034F06E
:101838002DC035F03534353234323332323232C09D
:101848002AF033C02BF034C02CF035C02DF03B4AC1
:101858003C2A3CBE38EF0CF03C5008E13B28D8A0AD
:1018680038EF0CF03AEF0CF045EF0CF0000E3C6E40
:101878003B68000E2A6E000E2B6E000E2C6E000EBA
:101888002D6E3CBE52EF0CF03C5006E13B04D8B044
:1018980050EF0CF052EF0CF060EF0CF0000E3C6EC5
:1018A800000E3B6E000E2A6E000E2B6E000E2C6E84
:1018B800000E2D6E000E3A6E3BC041F041A067EF5E
:1018C8000CF069EF0CF06CEF0CF02C8E6DEF0CF057
:1018D8002C9ED89041302D6E23EF0BF012000CBED9
:1018E80078EF0CF07AEF0CF052EF0DF0B5EC14F045
:1018F800106E116A10500B5C0C50800A126E115059
:10190800800A1258D8B08BEF0CF08DEF0CF052EF24
:101918000DF00EBE92EF0CF094EF0CF052EF0DF0BC
:10192800B7EC14F0106E116A10500D5C0E50800A5E
:10193800126E1150800A1258D8A0A5EF0CF0A7EF2C
:101948000CF039EF0DF052EF0DF00DC010F0070E4E
:101958001016010E116E102AB4EF0CF0D890113643
:10196800102EB2EF0CF00DC003F00EC004F0000E04
:10197800066E080E056EA1EC11F0070ED89003361E
:101988000436E82EC2EF0CF0A10E0324126E000EEE
:101998000420136E0B501224D96E0C501320DA6EEB
:1019A8001150DF1252EF0DF00DC010F0070E101697
:1019B800010E116E102AE3EF0CF0D8901136102E9C
:1019C800E1EF0CF01150FF0A126E0DC003F00EC0CB
:1019D80004F0000E066E080E056EA1EC11F0070E5D
:1019E800D89003360436E82EF4EF0CF0A10E032449
:1019F800136E000E0420146E0B501324D96E0C5075
:101A08001420DA6E1250DF1652EF0DF00DC010F0F0
:101A1800070E1016010E116E102A15EF0DF0D89052
:101A28001136102E13EF0DF00DC003F00EC004F0A8
:101A3800000E066E080E056EA1EC11F0070ED89088
:101A480003360436E82E23EF0DF0A10E0324126EA0
:101A5800000E0420136E0B501224D96E0C50132064
:101A6800DA6E1150DF1A52EF0DF00F50106E116A36
:101A78001150000AD8B443EF0DF052EF0DF010509A
:101A8800000AD8B4D8EF0CF0010AD8B4A9EF0CF0CA
:101A9800030AD8B40AEF0DF052EF0DF012000B6EE6
:101AA8000B50D8B45AEF0DF05CEF0DF07EEF0DF04F
:101AB80006BE63EF0DF061EF0DF07EEF0DF003C091
:101AC80007F004C008F005C009F006C00AF0071EB8
:101AD800081E091E0A1E072A000E082209220A22C9
:101AE80007C00DF008C00EF009C00FF00AC010F0D2
:101AF80086EF0DF003C00DF004C00EF005C00FF026
:101B080006C010F00350041005100610D8A48FEF7B
:101B18000DF091EF0DF09BEF0DF0000E036E000E2F
:101B2800046E000E056E000E066E2CEF0EF0960E7B
:101B38000C6EA5EF0DF00C2AD89010320F320E3231
:101B48000D32000E0D14076E000E0E14086E000EF6
:101B58000F14096EFE0E10140A6E075008100910B3
:101B68000A10D8A4BAEF0DF0BCEF0DF09FEF0DF0FE
:101B7800CAEF0DF00C2A010E0D26000E0E220F22C0
:101B88001022D89010320F320E320D32000E0D1482
:101B9800076E000E0E14086E000E0F14096EFF0E6D
:101BA80010140A6E0750081009100A10D8A4DFEFA5
:101BB8000DF0E1EF0DF0BEEF0DF0E9EF0DF00C06C2
:101BC800D8900D360E360F3610360FBEEEEF0DF0EC
:101BD800F0EF0DF0F8EF0DF0020E0C60F6EF0DF0DF
:101BE800F8EF0DF0E3EF0DF00CB0FDEF0DF0FFEFA7
:101BF8000DF000EF0EF00F9ED8900C320CC007F0DD
:101C0800086A096A0A6A07C00AF0096A086A076A5C
:101C180007500D1208500E1209500F120A501012D8
:101C28000B50D8B41AEF0EF01CEF0EF024EF0EF0A4
:101C380006BE23EF0EF021EF0EF024EF0EF0108E0B
:101C48000DC003F00EC004F00FC005F010C006F080
:101C580012008FEC14F053EC14F0000E0F015D6FBE
:101C6800000E5E6F948C95908C90000E03EC14F02F
:101C780003EC12F0A10E036E770E046E60EC13F005
:101C8800000E316E1E0E306E000E336E000E326E78
:101C9800E90E346E7F0E356EC6EC10F0000E206E25
:101CA800060E1F6E000E226E140E216E000E246E9C
:101CB800790E236E000E266E3F0E256E010E276EDE
:101CC800A9EC12F062EC12F0AEEC14F08B98948848
:101CD800D08EF28EF28EF286F290F180830EC216CA
:101CE800C282C2B27AEF0EF07CEF0EF075EF0EF002
:101CF800C4CF85F0CF0EBD16F00E156EA70E166E6A
:101D0800C60E176E3E0E186E00018551036E046AEA
:101D1800056A066A010E53EC0DF003C011F004C009
:101D280012F005C013F006C014F0A0EC04F011C0C6
:101D38002AF012C02BF013C02CF014C02DF0C1EC07
:101D48000FF02A50BE6E3EEC11F043C054F044C070
:101D580055F045C056F046C057F0950E036E7D0EFF
:101D6800046E60EC13F0000E316E140E306E000E2F
:101D7800336E1A0E326EDA0E346E7F0E356EC6EC86
:101D880010F054C08EF055C08FF056C090F057C078
:101D980091F0710E0001926F000E936F020E946F16
:101DA80077EC02F0000E316E0A0E306E000E336EC4
:101DB800280E326EF30E346E7F0E356EC6EC10F0C0
:101DC800000E316E230E306E000E336E280E326E0A
:101DD800710E346E000E356EC6EC10F0000E316ECA
:101DE8003C0E306E000E336E280E326EFA0E346ED4
:101DF8007F0E356EC6EC10F062EC12F072EF0EF04A
:101E080015EF00F003C00DF004C00EF007500810E5
:101E1800D8A411EF0FF013EF0FF015EF0FF0C0EF8C
:101E28000FF00DC0D9FF0EC0DAFF05C0DFFF075065
:101E38000D24096E08500E200A6EFF0E0924D96E73
:101E4800FF0E0A20DA6E05C0DFFF085007E1030E17
:101E5800075CD8B032EF0FF034EF0FF036EF0FF029
:101E6800C0EF0FF020EE01F00D50D9260E50DA2207
:101E780005C0DFFF20EE02F00D50D9260E50DA2201
:101E880005C0DFFF07500D24096E08500E200A6EAA
:101E9800FE0E0924D96EFF0E0A20DA6E05C0DFFF98
:101EA80007500D24096E08500E200A6EFD0E0924F5
:101EB800D96EFF0E0A20DA6E05C0DFFF085007E171
:101EC800070E075CD8B06BEF0FF06DEF0FF06FEFF8
:101ED8000FF0C0EF0FF020EE03F00D50D9260E5092
:101EE800DA2205C0DFFF07500D24096E08500E20C6
:101EF8000A6EFC0E0924D96EFF0E0A20DA6E05C0A0
:101F0800DFFF085007E1090E075CD8B08EEF0FF02D
:101F180090EF0FF092EF0FF0C0EF0FF00DC009F047
:101F28000EC00AF0091E0A1E094A0A2A030E0914DD
:101F38000B6E0C6A0B500D260C500E220B50075ED0
:101F48000C50085AFC0E0716FF0E0816B7EF0FF0D4
:101F58000DC0D9FF0EC0DAFF05C0DFFF0706D8A005
:101F680008060D4A0E2A07500810D8A4BEEF0FF035
:101F7800C0EF0FF0ACEF0FF012002C342D34336E9D
:101F88003350D8A4CAEF0FF0CCEF0FF0D6EF0FF014
:101F9800000E2A6E000E2B6E000E2C6E000E2D6E9B
:101FA80043EF10F02AC02EF02BC02FF02CC030F0D9
:101FB8002DC031F0200EE6EF0FF0D89031323032DC
:101FC8002F322E32E82EE1EF0FF02E50326E2C8E8B
:101FD800FF0E2A16FF0E2B16FF0E2C16000E2D16BE
:101FE800960E335E33BEFDEF0FF0FBEF0FF013EFED
:101FF80010F03350800A970FD8B005EF10F007EFB4
:1020080010F009EF10F0CCEF0FF0D8902D322C32F1
:102018002B322A32333E09EF10F02BEF10F01F0E4F
:10202800336419EF10F01BEF10F023EF10F0CCEF32
:102038000FF0D8902A362B362C362D3633063350EF
:10204800D8A429EF10F02BEF10F01DEF10F032504C
:10205800D8B431EF10F033EF10F03BEF10F02D1E35
:102068002C1E2B1E2A6C000E2B222C222D222AC05D
:102078002AF02BC02BF02CC02CF02DC02DF0120014
:10208800000E03140B6E000E04140C6E800E051463
:102098000D6E7F0E06140E6E0B500C100D100E10E8
:1020A800D8A459EF10F05BEF10F063EF10F0000EBA
:1020B800036E000E046E000E056E000E066E000E16
:1020C80007140B6E000E08140C6E800E09140D6EAA
:1020D8007F0E0A140E6E0B500C100D100E10D8A4A3
:1020E80078EF10F07AEF10F082EF10F0000E076E24
:1020F800000E086E000E096E000E0A6E06AE87EF1F
:1021080010F089EF10F092EF10F0036C041ED8B0B5
:10211800042A051ED8B0052A800E06560AAE97EF87
:1021280010F099EF10F0A2EF10F0076C081ED8B06D
:10213800082A091ED8B0092A800E0A56000E031A6A
:10214800000E041A000E051A800E061A000E071A51
:10215800000E081A000E091A800E0A1A0750035CAE
:1021680008500458095005580A500658D8B0BFEF0F
:1021780010F0C1EF10F0C4EF10F0D890C5EF10F0D8
:10218800D880120034C003F035C004F096EC13F088
:102198000350396EFE0E30183110D8A4D6EF10F067
:1021A800D8EF10F0E7EF10F0395000016203F3CFD9
:1021B80036F0F4CF37F036508008306E3750D8A05C
:1021C800E82A0008316E30283110D8A4EEEF10F05C
:1021D800F0EF10F009EF11F0395000016203F3CF6E
:1021E80036F0F4CF37F036508008036E3750D8A059
:1021F800E82A0008046E000E066E020E056EA1ECB9
:1022080011F003C030F004C031F0000E386E34EF26
:1022180011F0385000016203F3CF36F0F4CF37F0F5
:1022280030503624156E31503720166E32C017F0F4
:1022380033C018F034C0F6FF35C0F7FFF86A070E50
:10224800F76403D00800F55005D0F6CFE9FFF7CFC3
:10225800EAFFEF50196EB5EC08F0344A352A382AEF
:102268003950385CD8A03BEF11F03DEF11F00DEF7D
:1022780011F012008A860D0EE82EFED700F08A961D
:1022880081A849EF11F04BEF11F044EF11F0000E67
:10229800CF6E000ECE6E81B854EF11F056EF11F0EC
:1022A8004FEF11F0CECF4FF0506ACFCF4DF04E6ABE
:1022B800000E156E000E166E080E176E420E186E82
:1022C8004D50486E476A4F5047265050482247C0E5
:1022D80003F048C004F0056A066A000E53EC0DF0DE
:1022E80003C011F004C012F005C013F006C014F0CA
:1022F800A0EC04F011C02AF012C02BF013C02CF08F
:1023080014C02DF0000E2E6E000E2F6E000E306ED3
:10231800400E316EA6EC0AF02AC049F02BC04AF0F4
:102328002CC04BF02DC04CF049C043F04AC044F0DB
:102338004BC045F04CC046F01200000E086E06BEB9
:10234800AAEF11F0A8EF11F0B0EF11F0056C061E1E
:10235800D8B0062A010E086E04BEB7EF11F0B5EF2B
:1023680011F0BDEF11F0036C041ED8B0042A010E61
:10237800081A000E0A6E000E096E05500610D8B431
:10238800C8EF11F0CAEF11F0F2EF11F0010E076E6D
:10239800D2EF11F0D89005360636072A06AED7EFE9
:1023A80011F0D9EF11F0CEEF11F0D89009360A36B6
:1023B8000550035C06500458D8A0E5EF11F0E7EF8C
:1023C80011F0ECEF11F00550035E0650045A098035
:1023D800D89006320532072ED9EF11F00850D8B43C
:1023E800F8EF11F0FAEF11F0FEEF11F0096C0A1E88
:1023F800D8B00A2A09C003F00AC004F01200030E7C
:10240800106E080E0F6E770EE82EFED70F2EFCD733
:10241800102EFAD700F0AE0E64EC14F0D50E64EC72
:1024280014F0800E64EC14F0A80E64EC14F03F0E67
:1024380064EC14F0D30E64EC14F0000E64EC14F0A9
:10244800400E64EC14F08D0E64EC14F0140E64EC81
:1024580014F0200E64EC14F0000E64EC14F0A10EDD
:1024680064EC14F0C80E64EC14F0DA0E64EC14F0AA
:10247800120E64EC14F0810E64EC14F0CF0E64ECD0
:1024880014F0D90E64EC14F0F10E64EC14F0DB0EC9
:1024980064EC14F0400E64EC14F0A40E64EC14F038
:1024A800A60E64EC14F02E0E64EC14F0AF0E64EC7F
:1024B80014F073EC14F062EC12F01200000E056ECA
:1024C800210E64EC14F0000E64EC14F07F0E64EC42
:1024D80014F0220E64EC14F0000E64EC14F0070EF5
:1024E80064EC14F0000E076E000E066EA4EC14F0F7
:1024F800780E82EC14F0400E82EC14F0000E056E9B
:10250800A10E0624D96E000E0720DA6EDF5082EC89
:1025180014F0064A072A052A0F0E056496EF12F0F2
:1025280098EF12F084EF12F00606D8A007069AEC8E
:1025380014F0064A072A040E075CD8A0A6EF12F08A
:10254800A8EF12F07AEF12F012001FC015F020C0A9
:1025580016F023C017F024C018F021C019F022C0CB
:102568001AF027C01BF025EC13F01FC015F020C08F
:1025780016F023C017F024C018F025C019F026C0A3
:102588001AF027C01BF025EC13F021C015F022C06B
:1025980016F025C017F026C018F01FC019F020C08B
:1025A8001AF027C01BF0EAEC12F021C015F022C087
:1025B80016F025C017F026C018F023C019F024C063
:1025C8001AF027C01BF0EAEC12F012001550175C45
:1025D8001850800A1C6E1650800A1C58D8B0F7EFA5
:1025E80012F0F9EF12F015EF13F015C01DF016C038
:1025F8001EF017C015F018C016F01DC017F01EC049
:1026080018F015EF13F019C00BF01AC00CF015C034
:102618000DF016C00EF01BC00FF073EC0CF0154A4D
:10262800162A1550175C1850800A1C6E1650800A1E
:102638001C58D8B022EF13F024EF13F007EF13F073
:1026480012001550175C1850800A1C6E1650800A2C
:102658001C58D8B032EF13F034EF13F050EF13F0EA
:1026680015C01DF016C01EF017C015F018C016F0E2
:102678001DC017F01EC018F050EF13F015C00BF076
:1026880016C00CF019C00DF01AC00EF01BC00FF0E8
:1026980073EC0CF0154A162A1550175C1850800A6E
:1026A8001C6E1650800A1C58D8B05DEF13F05FEF0F
:1026B80013F042EF13F0120003C060F004C061F0A1
:1026C80003C0F6FF04C0F7FF0800F5CF62F0010E63
:1026D8000324056E000E0420066E05C0F6FF06C032
:1026E800F7FF0800F5CF63F0020E0324056E000E15
:1026F8000420066E05C0F6FF06C0F7FF0800F5CFF8
:1027080064F0030E0324056E000E0420066E05C057
:10271800F6FF06C0F7FF0800F5CF65F0000E0001D0
:10272800666F120003C005F004C006F09EEF13F0B8
:10273800034A042A03C0F6FF04C0F7FFF86A070E2D
:10274800F76403D00800F55005D0F6CFE9FFF7CFBE
:10275800EAFFEF500009D8A4B4EF13F0B6EF13F076
:102768009CEF13F00550035C036E06500458046E8A
:102778001200000E00018A1B000E8B1B000E8C1B22
:10278800800E8D1B86C043F087C044F088C045F09A
:1027980089C046F08AC047F08BC048F08CC049F029
:1027A8008DC04AF017EC00F043C086F044C087F0B3
:1027B80045C088F046C089F012006A0EF66E0D0E0C
:1027C800F76E000EF86E00EEA1F014EE00F00900AE
:1027D800F5CFEEFFE550E150FAE1E250F8E100EE06
:1027E80060F0260EEE6AE806FDE15A6A596A586AF0
:1027F8005B905B92000EF86E00012DEF0EF0036EF9
:10280800938C938A03C0C7FF280EC66E000EC56E50
:10281800800E0318D8A413EF14F015EF14F019EF75
:1028280014F0770EC86E23EF14F00350D8A41FEFEE
:1028380014F021EF14F023EF14F01D0EC86E1200EF
:102848000350041005100610D8B42DEF14F02FEF24
:1028580014F037EF14F0000E031A000E041A000EDD
:10286800051A800E061A03C003F004C004F005C060
:1028780005F006C006F012000B500D02F3CF0FF062
:10288800F4CF10F00B500E02F35010260C500D022E
:10289800F35010260FC00BF010C00CF012009494E7
:1028A800630EBB6EBA50FC0B0109BA6EBA84BD50F8
:1028B800F00B0C09BD6E3F0EBD16000EBE6E120069
:1028C800046EA4EC14F0780E82EC14F0000E82EC86
:1028D80014F0045082EC14F09AEC14F01200A10EDB
:1028E800036E000E046E000E066E000E056E040EDA
:1028F800086E000E076E06EC0FF01200036E03C0A0
:10290800C9FF9EA68AEF14F08CEF14F085EF14F03F
:102918009E96C5501200830EC216C050F80B0609C9
:10292800C06E380EC012C09EC2801200C5849EA61A
:10293800A0EF14F0A2EF14F09BEF14F09E96120093
:10294800C5809EA6AAEF14F0ACEF14F0A5EF14F022
:102958009E961200939693888A96F80ECD6ECD8037
:0A2968001200800E1200400E120053
:106BBC00001010205F00000000000000000000002A
:106BCC0000000000000000000000000000000000B9
:106BDC00000000000000000000F8FCFCFCF80000C5
:106BEC000000000000000000000073737300000040
:106BFC000000000000000000001E3E3E0000003EB1
:106C0C003E1E00000000000000000000000000001C
:106C1C00000000000000303030FEFE30303030FE1E
:106C2C00FE30303000000C0C0C7F7F0C0C0C0C7FF9
:106C3C007F0C0C0C00000000F0F898FE9898FE9861
:106C4C0098180000000000001819197F19197F19F5
:106C5C001F0F0000000000000038383880C0E070C2
:106C6C003800000000000000001C0E0703011C1C73
:106C7C001C0000000000000038FCC4C4FC380000FC
:106C8C0000800000000000001E3F2121333F1E1E2B
:106C9C00372300000000000000203C3C1C000000DA
:106CAC0000000000000000000000000000000000D8
:106CBC00000000000000000000C0E0F0381C0C04D4
:106CCC0004000000000000000003070F1C383020F7
:106CDC0020000000000000000004040C1C38F0E050
:106CEC00C00000000000000000202030381C0F07FE
:106CFC0003000000000000808890E0E0FCFCE0E075
:106D0C009088800000000001110907073F3F07072A
:106D1C00091101000000000000808080F0F08080EC
:106D2C008000000000000000000101010F0F0101B4
:106D3C000100000000000000000000000000000046
:106D4C0000000000000000000040787838000000CF
:106D5C000000000000000000808080808080808027
:106D6C00808000000000000001010101010101010F
:106D7C000101000000000000000000000000000005
:106D8C00000000000000000000003838380000004F
:106D9C00000000000000000000000000000080C0A7
:106DAC00E070381C000000002030381C0E07030176
:106DBC000000000000000000F8FCFC0484E474FCFB
:106DCC00FCF80000000000001F3F3F2E2721203F51
:106DDC003F1F000000000000606060F0FCFC000041
:106DEC0000000000000000002020203F3F3F20203A
:106DFC002000000000000000181C1C040484CCFCC3
:106E0C00783000000000000030383C2E2723213859
:106E1C003838000000000000181C1C848484CC7CD2
:106E2C007830000000000000183838212121333E52
:106E3C001E0C00000000000080C0603018FCFCFC40
:106E4C00000000000000000003030323233F3F3F2A
:106E5C002323000000000000FCFCFC848484848458
:106E6C000404000000000000193939212121333FAE
:106E7C001F0E000000000000E0F0F89C8C8484845D
:106E8C0080000000000000001F3F3F212121213F16
:106E9C003F1F0000000000003C3C3C040404048440
:106EAC00FCFC7C0000000000000000383C3E0703A6
:106EBC000100000000000000787CFCC4C48484FC49
:106ECC007C780000000000001E3E3F212123233F60
:106EDC003E1E000000000000F8FCFC84848484FC4E
:106EEC00FCF8000000000000000121212131391FB5
:106EFC000F07000000000000000000707070000020
:106F0C0000000000000000000000000E0E0E00004B
:106F1C000000000000000000000000707070000015
:106F2C0000000000000000000000101E1E0E0000FB
:106F3C00000000000000000080C0E070381C0E064D
:106F4C0002000000000000000103070E1C387060F6
:106F5C004000000000000060606060606060606085
:106F6C0060606000000000060606060606060606BF
:106F7C00060606000000000002060E1C3870E0C079
:106F8C008000000000000000406070381C0E0703F9
:106F9C000100000000000000181C0C0E0686CEFC40
:106FAC007C380000000000000000000073737300C8
:106FBC000000000000000000FCFEFE0202C2C2C283
:106FCC00FEFEFC00000000003F3F7F6060636363D7
:106FDC006343030000000000E0F0F81C0C0C1CF8EC
:106FEC00F0E00000000000003F3F3F020202023FC1
:106FFC003F3F00000000000004FCFCFC848484FC87
:10700C00FC78000000000000203F3F3F2121213F81
:10701C003F1E000000000000F0F8FC0C0404041CEF
:10702C001C180000000000000F1F3F3020202038EB
:10703C00381800000000000004FCFCFC04040CFCEC
:10704C00F8F0000000000000203F3F3F2020303FC0
:10705C001F0F00000000000004FCFCFC848484C4AE
:10706C00CC1C000000000000203F3F3F21212123C9
:10707C00333800000000000004FCFCFC848484C451
:10708C00CC1C000000000000203F3F3F2101010309
:10709C000300000000000000F0F8FC0C0404043CA9
:1070AC003C380000000000000F1F3F302022223E21
:1070BC003E3E000000000000FCFCFC808080FCFCDC
:1070CC00FC000000000000003F3F3F0101013F3F7A
:1070DC003F00000000000000000404FCFCFC040461
:1070EC0000000000000000000020203F3F3F202057
:1070FC000000000000000000000000000404FCFC84
:10710C00FC0404000000001E1E3E202020203F3FF7
:10711C001F0000000000000004FCFCFCC0E0703C00
:10712C001C0C000000000000203F3F3F03070E3CFA
:10713C00383000000000000004FCFCFC04000000DF
:10714C000000000000000000203F3F3F20202030C6
:10715C00383C000000000000FCFCFC78F0E0F0780B
:10716C00FCFCFC00000000003F3F3F000001000061
:10717C003F3F3F0000000000FCFCFC70E0C08000C2
:10718C00FCFCFC00000000003F3F3F000001030737
:10719C003F3F3F0000000000E0F0F81C0C0C0C1C02
:1071AC00F8F0E00000000000070F1F3830303038D6
:1071BC001F0F07000000000004FCFCFC848484FC0E
:1071CC00FC78000000000000203F3F3F210101013E
:1071DC000100000000000000E0F8F81C0C040C1C7E
:1071EC00F8F8E00000000000071F1F18185C5E7E16
:1071FC007F7F47000000000004FCFCFC848484FCBE
:10720C00FC78000000000000203F3F3F0101033FDD
:10721C003F3C00000000000078FCFC84848484BCAB
:10722C003C380000000000001C3C3D212121213F86
:10723C003F1E0000000000001C0C0404FCFCFC04BD
:10724C00040C1C0000000000000020203F3F3F20E9
:10725C002000000000000000FCFCFC000000FCFC16
:10726C00FC000000000000001F3F3F2020203F3F9B
:10727C001F00000000000000FCFCFC000000FCFCF7
:10728C00FC00000000000000070F1F3830381F0FF3
:10729C000700000000000000FCFCFC000080000067
:1072AC00FCFCFC0000000000030F3F3C3C0F3C3C8E
:1072BC003F0F0300000000001C3C7CE0C0E07C3C65
:1072CC001C00000000000000383C3E0703073E3C59
:1072DC0038000000000000007CFCFC800080FCFCFE
:1072EC007C000000000000000020213F3F3F2120D7
:1072FC0000000000000000003C1C0C0484C4E47C72
:10730C003C1C000000000000383C3E2723212030AC
:10731C00383C0000000000000000FCFCFC040404ED
:10732C00040000000000000000003F3F3F20202030
:10733C0020000000000000001C3870E0C08000003D
:10734C000000000000000000000000000103070E18
:10735C001C18302020000000000004040404FCFC75
:10736C00FC000000000000000000202020203F3F17
:10737C003F000000000000002030381C0E0E1C38AE
:10738C0030200000000000000000000000000000A1
:10739C0000000000000000000000000000000000E1
:1073AC00000000000000C0C0C0C0C0C0C0C0C0C051
:1073BC00C0C0C0C0C00000000C0C3C30300000004D
:1073CC0000000000000000000000000000000000B1
:1073DC000000000000000000004040404040C0C0E1
:1073EC0080000000000000001C3E3E2222223F1FB5
:1073FC003F2000000000000004FCFCFC404040C0AA
:10740C00C080000000000000203F1F3F2020203FD4
:10741C003F1F00000000000080C0C0404040C0C0C2
:10742C0080000000000000001F3F3F202020393961
:10743C00190000000000000080C0C0404044FCFC6B
:10744C00FC040000000000001F3F3F2020203F1FD5
:10745C003F2000000000000080C0C0404040C0C081
:10746C0080000000000000001F3F3F2222223B3B17
:10747C001B000000000000008080F8FCFC849C9C39
:10748C00180000000000000021213F3F3F21210196
:10749C00000000000000000080C0C0404040C080E0
:1074AC00C04000000000000047CFDF989898FFFF15
:1074BC007F0000000000000004FCFCFC804040C089
:1074CC00C080000000000000203F3F3F0100003F53
:1074DC003F3F00000000000000404040DCDCDC00CE
:1074EC000000000000000000002020203F3F3F2053
:1074FC002020000000000000000000404040DCDCC8
:10750C00DC000000000000002060E08080C0FFFF75
:10751C007F0000000000000004FCFCFC000080C0A8
:10752C00C040000000000000203F3F3F02070F3D1D
:10753C00383000000000000000040404FCFCFC00D7
:10754C000000000000000000002020203F3F3F20F2
:10755C002020000000000000C0C0C04040C04040DF
:10756C00C0C08000000000003F3F3F00003F000013
:10757C003F3F3F0000000000C0C0C0404040C0C0C2
:10758C0080000000000000003F3F3F0000003F3F34
:10759C003F0000000000000080C0C0404040C0C060
:1075AC0080000000000000001F3F3F2020203F3FD4
:1075BC001F0000000000000040C080C0404040C0E0
:1075CC00C08000000000000080FFFFFF9010101F23
:1075DC001F0F000000000080C0C0404040C080C0B1
:1075EC00400000000000000F1F1F101090FFFFFF55
:1075FC00800000000000000040C0C0C080C0C0C0BF
:10760C00C080000000000000203F3F3F210000012F
:10761C00010100000000000080C0C040404040C09C
:10762C008000000000000000193B232626263C3D6C
:10763C0019000000000000004040E0F0F84040401D
:10764C00400000000000000000001F3F3F203838C1
:10765C001800000000000000C0C0C0000000C0C046
:10766C00C0000000000000001F3F3F2020203F1FF3
:10767C003F20000000000000C0C0C0000000C0C0DF
:10768C00C000000000000000070F1F3830381F0F2B
:10769C000700000000000000C0C0C0000000000097
:1076AC00C0C0C00000000000070F3F38380E38384B
:1076BC003F0F070000000000C0C0C00000C0C0C0E9
:1076CC00000000000000000030393F0F0F3F393040
:1076DC00000000000000000000C0C0C0000000C09E
:1076EC00C0C000000000000080878F9FD8F8783F52
:1076FC000F07000000000000C0C0404040C0C0C0E8
:10770C00000000000000000031383C2E27233138E7
:10771C0000000000000000008080C0787C3C040465
:10772C0004040000000000000101031E3E3C202068
:10773C00202000000000000000000000FEFEFE0003
:10774C000000000000000000000000007F7F7F00B0
:10775C000000000000000000040404043C7C78C01D
:10776C008080000000000000202020203C3E1E03F2
:10777C0001010000000000383C3C040C1C38302097
:10778C003C3C1C0000000000000000000000000059
:10779C0000000000000810205F0000000000000046
:1077AC00000000000000000000000000F8000000D5
:1077BC0000000000333000000000100C06100C0616
:1077CC0000000000000000000040C07840C078407D
:1077DC0000043F04043F040400007088FC083000DF
:1077EC0000001820FF211E0000F008F000E0180037
:1077FC000000211C031E211E0000F00888700000F0
:10780C00001E2123241927211010160E0000000041
:10781C00000000000000000000000000E01804025E
:10782C0000000000071820400000020418E00000CF
:10783C00000040201807000000404080F0804040CD
:10784C00000202010F01020200000000F000000023
:10785C00000101011F0101010000000000000000F7
:10786C000080B0700000000000000000000000006C
:10787C0000000101010101010100000000000000F5
:10788C000000303000000000000000000080601894
:10789C0004006018060100000000E010080810E069
:1078AC0000000F102020100F00001010F800000036
:1078BC00000020203F20200000007008080888707D
:1078CC0000003028242221300000300888884830FD
:1078DC00000018202020110E000000C02010F8001D
:1078EC000000070424243F240000F80888880808B6
:1078FC00000019212020110E0000E01088881800CB
:10790C0000000F112020110E0000380808C838089C
:10791C00000000003F00000000007088080888701C
:10792C0000001C222121221C0000E010080810E09D
:10793C00000000312222110F00000000C0C0000026
:10794C00000000003030000000000000800000004B
:10795C000000008060000000000000804020100843
:10796C00000001020408102000404040404040400C
:10797C0000040404040404040000081020408000E7
:10798C00000020100804020100007048080808F0EC
:10799C00000000003036010000C030C828E810E0BC
:1079AC00000718272423140B000000C038E0000047
:1079BC0000203C23020227382008F88888887000B1
:1079CC0000203F202020110E00C030080808083885
:1079DC0000071820202010080008F808080810E0FC
:1079EC0000203F202020100F0008F88888E808109D
:1079FC0000203F20202320180008F88888E8081071
:107A0C0000203F200003000000C0300808083800A8
:107A1C000007182020221E020008F808000008F8B1
:107A2C0008203F210101213F20000808F808080028
:107A3C00000020203F2020000000000808F8080863
:107A4C0000C08080807F00000008F888C0281808DB
:107A5C0000203F20012638200008F8080000000014
:107A6C0000203F20202020300008F8F800F8F8080B
:107A7C0000203F003F003F200008F830C00008F80D
:107A8C0008203F200007183F00E01008080810E00D
:107A9C00000F10202020100F0008F808080808F02C
:107AAC0000203F210101010000E01008080810E04F
:107ABC00000F18242438504F0008F88888888870E4
:107ACC0000203F2000030C30200070880808083884
:107ADC00000038202121221C00180808F80808187A
:107AEC00000000203F2000000008F808000008F803
:107AFC0008001F202020201F000878880000C838AC
:107B0C0008000007380E010000F80800F80008F81B
:107B1C0000033C0700073C030008186880806818C5
:107B2C000820302C03032C30200838C800C8380833
:107B3C00000000203F2000000010080808C838088A
:107B4C00002038262120201800000000FE0202022E
:107B5C00000000007F40404000000C30C0000000DE
:107B6C0000000000010638C00000020202FE000006
:107B7C0000004040407F00000000000402020204AC
:107B8C0000000000000000000000000000000000E9
:107B9C0000808080808080808000020204000000D1
:107BAC0000000000000000000000008080808000C9
:107BBC00000019242222223F2008F80080800000B7
:107BCC0000003F112020110E00000000808080007A
:107BDC0000000E112020201100000000808088F889
:107BEC0000000E112020103F2000008080808000BB
:107BFC0000001F222222221300008080F088888837
:107C0C00180020203F202000000000808080808011
:107C1C0000006B94949493600008F80080808000BE
:107C2C0000203F210000203F200080989800000099
:107C3C00000020203F2020000000000080989800C9
:107C4C000000C08080807F000008F80000808080E9
:107C5C0000203F24022D302000000808F80000000E
:107C6C00000020203F2020000080808080808080C9
:107C7C0000203F20003F20003F808000808080005B
:107C8C0000203F210000203F2000008080808000E9
:107C9C0000001F202020201F00808000808000001A
:107CAC000080FFA12020110E000000008080808049
:107CBC0000000E112020A0FF80808080008080803A
:107CCC000020203F21200001000000808080808067
:107CDC00000033242424241900008080E0808000DC
:107CEC00000000001F202000008080000000808029
:107CFC0000001F202020103F20808080000080800A
:107D0C008000010E30080601008080008000808019
:107D1C00800F300C030C300F0000808000808080BE
:107D2C00000020312E0E31200080808000008080E9
:107D3C008080818E70180601000080808080808099
:107D4C00000021302C2221300000000000807C0239
:107D5C000200000000003F404000000000FF000057
:107D6C000000000000FF0000000002027C80000008
:107D7C00000040403F000000000006010102020428
:107D8C000400000000000000000608205F00000056
:107D9C000000000000002F0000000007000700009A
:107DAC00147F147F1400242A7F2A120023130864E2
:107DBC006200364955225000000503000000001CEB
:107DCC00224100000041221C000014083E0814004F
:107DDC0008083E0808000000A06000000808080819
:107DEC0008000060600000002010080402003E51F2
:107DFC0049453E0000427F40000042615149460027
:107E0C002141454B31001814127F10002745454580
:107E1C0039003C4A494930000171090503003649D3
:107E2C0049493600064949291E0000363600000033
:107E3C0000563600000008142241000014141414DB
:107E4C0014000041221408000201510906003249B5
:107E5C0059513E007C1211127C007F494949360071
:107E6C003E41414122007F4141221C007F4949494A
:107E7C0041007F09090901003E4149497A007F0808
:107E8C0008087F0000417F4100002040413F010075
:107E9C007F08142241007F40404040007F020C02CA
:107EAC007F007F0408107F003E4141413E007F0966
:107EBC00090906003E4151215E007F09192946003F
:107ECC0046494949310001017F0101003F404040D2
:107EDC003F001F2040201F003F4038403F006314EC
:107EEC0008146300070870080700615149454300F6
:107EFC00007F41410000552A552A55000041417F21
:107F0C000000040201020400404040404000000117
:107F1C00020400002054545478007F484444380034
:107F2C00384444442000384444487F003854545466
:107F3C001800087E0901020018A4A4A47C007F0884
:107F4C000404780000447D4000004080847D0000E3
:107F5C007F102844000000417F4000007C0418047E
:107F6C0078007C0804047800384444443800FC242D
:107F7C002424180018242418FC007C08040408008D
:107F8C00485454542000043F444020003C404020BE
:107F9C007C001C2040201C003C4030403C0044280D
:107FAC00102844001CA0A0A07C004464544C440045
:107FBC0000087700000000007F0000000077080038
:107FCC000000100810080014141414141400536545
:107FDC006E736F722048432D535230340056616CCF
:107FEC006F722041444300446973743A200020634B
:037FFC006D000015
:020000040030CA
:0E00000000225E3CFF9081FF0FC00FE00F401A
:00000001FF
